{
  "address": "0xa60a49a27cbf49d388e45e6537C40685F6865126",
  "abi": [
    {
      "anonymous": false,
      "inputs": [
        {
          "indexed": false,
          "internalType": "address",
          "name": "from",
          "type": "address"
        },
        {
          "indexed": false,
          "internalType": "address",
          "name": "to",
          "type": "address"
        },
        {
          "indexed": false,
          "internalType": "uint256",
          "name": "value",
          "type": "uint256"
        }
      ],
      "name": "DepositTranferred",
      "type": "event"
    },
    {
      "anonymous": false,
      "inputs": [
        {
          "indexed": false,
          "internalType": "address",
          "name": "from",
          "type": "address"
        },
        {
          "indexed": false,
          "internalType": "uint256",
          "name": "value",
          "type": "uint256"
        }
      ],
      "name": "EthDepositAccepted",
      "type": "event"
    },
    {
      "anonymous": false,
      "inputs": [
        {
          "indexed": false,
          "internalType": "address",
          "name": "from",
          "type": "address"
        },
        {
          "indexed": false,
          "internalType": "address",
          "name": "to",
          "type": "address"
        }
      ],
      "name": "OwnershipTransferred",
      "type": "event"
    },
    {
      "anonymous": false,
      "inputs": [
        {
          "indexed": false,
          "internalType": "address",
          "name": "from",
          "type": "address"
        },
        {
          "indexed": false,
          "internalType": "uint256",
          "name": "value",
          "type": "uint256"
        }
      ],
      "name": "ReceivedByFallback",
      "type": "event"
    },
    {
      "anonymous": false,
      "inputs": [
        {
          "indexed": false,
          "internalType": "address",
          "name": "from",
          "type": "address"
        },
        {
          "indexed": false,
          "internalType": "uint256",
          "name": "value",
          "type": "uint256"
        }
      ],
      "name": "ReceivedWithEmptyCalldata",
      "type": "event"
    },
    {
      "anonymous": false,
      "inputs": [
        {
          "indexed": true,
          "internalType": "bytes32",
          "name": "role",
          "type": "bytes32"
        },
        {
          "indexed": true,
          "internalType": "bytes32",
          "name": "previousAdminRole",
          "type": "bytes32"
        },
        {
          "indexed": true,
          "internalType": "bytes32",
          "name": "newAdminRole",
          "type": "bytes32"
        }
      ],
      "name": "RoleAdminChanged",
      "type": "event"
    },
    {
      "anonymous": false,
      "inputs": [
        {
          "indexed": true,
          "internalType": "bytes32",
          "name": "role",
          "type": "bytes32"
        },
        {
          "indexed": true,
          "internalType": "address",
          "name": "account",
          "type": "address"
        },
        {
          "indexed": true,
          "internalType": "address",
          "name": "sender",
          "type": "address"
        }
      ],
      "name": "RoleGranted",
      "type": "event"
    },
    {
      "anonymous": false,
      "inputs": [
        {
          "indexed": true,
          "internalType": "bytes32",
          "name": "role",
          "type": "bytes32"
        },
        {
          "indexed": true,
          "internalType": "address",
          "name": "account",
          "type": "address"
        },
        {
          "indexed": true,
          "internalType": "address",
          "name": "sender",
          "type": "address"
        }
      ],
      "name": "RoleRevoked",
      "type": "event"
    },
    {
      "stateMutability": "payable",
      "type": "fallback"
    },
    {
      "inputs": [],
      "name": "DEFAULT_ADMIN_ROLE",
      "outputs": [
        {
          "internalType": "bytes32",
          "name": "",
          "type": "bytes32"
        }
      ],
      "stateMutability": "view",
      "type": "function"
    },
    {
      "inputs": [
        {
          "internalType": "bytes32",
          "name": "role",
          "type": "bytes32"
        }
      ],
      "name": "getRoleAdmin",
      "outputs": [
        {
          "internalType": "bytes32",
          "name": "",
          "type": "bytes32"
        }
      ],
      "stateMutability": "view",
      "type": "function"
    },
    {
      "inputs": [
        {
          "internalType": "bytes32",
          "name": "role",
          "type": "bytes32"
        },
        {
          "internalType": "address",
          "name": "account",
          "type": "address"
        }
      ],
      "name": "grantRole",
      "outputs": [],
      "stateMutability": "nonpayable",
      "type": "function"
    },
    {
      "inputs": [
        {
          "internalType": "bytes32",
          "name": "role",
          "type": "bytes32"
        },
        {
          "internalType": "address",
          "name": "account",
          "type": "address"
        }
      ],
      "name": "hasRole",
      "outputs": [
        {
          "internalType": "bool",
          "name": "",
          "type": "bool"
        }
      ],
      "stateMutability": "view",
      "type": "function"
    },
    {
      "inputs": [],
      "name": "owner",
      "outputs": [
        {
          "internalType": "address payable",
          "name": "",
          "type": "address"
        }
      ],
      "stateMutability": "view",
      "type": "function"
    },
    {
      "inputs": [
        {
          "internalType": "address",
          "name": "tokenAddress",
          "type": "address"
        },
        {
          "internalType": "uint256",
          "name": "tokenAmount",
          "type": "uint256"
        }
      ],
      "name": "recoverERC20",
      "outputs": [],
      "stateMutability": "nonpayable",
      "type": "function"
    },
    {
      "inputs": [
        {
          "internalType": "bytes32",
          "name": "role",
          "type": "bytes32"
        },
        {
          "internalType": "address",
          "name": "account",
          "type": "address"
        }
      ],
      "name": "renounceRole",
      "outputs": [],
      "stateMutability": "nonpayable",
      "type": "function"
    },
    {
      "inputs": [
        {
          "internalType": "bytes32",
          "name": "role",
          "type": "bytes32"
        },
        {
          "internalType": "address",
          "name": "account",
          "type": "address"
        }
      ],
      "name": "revokeRole",
      "outputs": [],
      "stateMutability": "nonpayable",
      "type": "function"
    },
    {
      "inputs": [
        {
          "internalType": "bytes4",
          "name": "interfaceId",
          "type": "bytes4"
        }
      ],
      "name": "supportsInterface",
      "outputs": [
        {
          "internalType": "bool",
          "name": "",
          "type": "bool"
        }
      ],
      "stateMutability": "view",
      "type": "function"
    },
    {
      "inputs": [
        {
          "internalType": "address",
          "name": "to",
          "type": "address"
        }
      ],
      "name": "transferOwnership",
      "outputs": [],
      "stateMutability": "nonpayable",
      "type": "function"
    },
    {
      "inputs": [],
      "name": "withdraw",
      "outputs": [],
      "stateMutability": "nonpayable",
      "type": "function"
    },
    {
      "stateMutability": "payable",
      "type": "receive"
    }
  ],
  "transactionHash": "0x6557f48aa42f85a9027483d69be10833df81a9493f5a3bda64a620f231fa3fdc",
  "args": [],
  "numDeployments": 1,
  "solcInputHash": "ef12d01020ad51283785a2348c0cb6ea",
  "bytecode": "0x6080604052600060025534801561001557600080fd5b50600180546001600160a01b031916339081179091556100379060009061003c565b6100db565b6000828152602081815260408083206001600160a01b038516845290915290205460ff166100d7576000828152602081815260408083206001600160a01b03851684529091529020805460ff191660011790556100963390565b6001600160a01b0316816001600160a01b0316837f2f8788117e7eff1d82e926ec794901d17c78024a50270940304540a733656f0d60405160405180910390a45b5050565b610c48806100ea6000396000f3fe6080604052600436106100a05760003560e01c80638980f11f116100645780638980f11f146101e25780638da5cb5b1461020257806391d148541461023a578063a217fddf1461025a578063d547741f1461026f578063f2fde38b1461028f576100f3565b806301ffc9a71461011a578063248a9ca31461014f5780632f2ff15d1461018d57806336568abe146101ad5780633ccfd60b146101cd576100f3565b366100f3577f8ba01265c9b6ec0168b2527730bc7a722504d5954edae6adc66dafe1148d7e29335b604080516001600160a01b0390921682523460208301520160405180910390a16100f1346102af565b005b7ff5d666b10e8eabacd38f5e3f7f80ee83c1af5a88b41af019ccbc4fa30a1abaf2336100c8565b34801561012657600080fd5b5061013a61013536600461099a565b610418565b60405190151581526020015b60405180910390f35b34801561015b57600080fd5b5061017f61016a3660046109c4565b60009081526020819052604090206001015490565b604051908152602001610146565b34801561019957600080fd5b506100f16101a83660046109f9565b61044f565b3480156101b957600080fd5b506100f16101c83660046109f9565b61047a565b3480156101d957600080fd5b506100f16104f8565b3480156101ee57600080fd5b506100f16101fd366004610a25565b61053e565b34801561020e57600080fd5b50600154610222906001600160a01b031681565b6040516001600160a01b039091168152602001610146565b34801561024657600080fd5b5061013a6102553660046109f9565b6105e0565b34801561026657600080fd5b5061017f600081565b34801561027b57600080fd5b506100f161028a3660046109f9565b610609565b34801561029b57600080fd5b506100f16102aa366004610a4f565b61062f565b600a600254600f6102c09190610a80565b6102cb906005610a9f565b6102d59190610ab7565b8110156103205760405162461bcd60e51b8152602060048201526014602482015273125b9cdd59999a58da595b9d0819195c1bdcda5d60621b60448201526064015b60405180910390fd5b60028190556003546001600160a01b03163381156103bb576040516001600160a01b0383169084156108fc029085906000818181858888f1935050505015801561036e573d6000803e3d6000fd5b50604080516001600160a01b038084168252841660208201529081018490527f2c6c7523d16edea18eb4da58d020b8af96f8bc3f2ed37b6fd0269fd9d89334ad9060600160405180910390a15b600380546001600160a01b0319166001600160a01b03831690811790915560408051918252602082018590527f26e0d9b686cdc74171066327c39f197c75dc2b91ce2e4d719178c13122b882be91015b60405180910390a1505050565b60006001600160e01b03198216637965db0b60e01b148061044957506301ffc9a760e01b6001600160e01b03198316145b92915050565b60008281526020819052604090206001015461046b81336106aa565b610475838361070e565b505050565b6001600160a01b03811633146104ea5760405162461bcd60e51b815260206004820152602f60248201527f416363657373436f6e74726f6c3a2063616e206f6e6c792072656e6f756e636560448201526e103937b632b9903337b91039b2b63360891b6064820152608401610317565b6104f48282610792565b5050565b600061050481336106aa565b60015460405147916001600160a01b03169082156108fc029083906000818181858888f19350505050158015610475573d6000803e3d6000fd5b600061054a81336106aa565b6001600160a01b03831663a9059cbb336040516001600160e01b031960e084901b1681526001600160a01b03909116600482015260248101859052604401602060405180830381600087803b1580156105a257600080fd5b505af11580156105b6573d6000803e3d6000fd5b505050506040513d601f19601f820116820180604052508101906105da9190610ad9565b50505050565b6000918252602082815260408084206001600160a01b0393909316845291905290205460ff1690565b60008281526020819052604090206001015461062581336106aa565b6104758383610792565b600061063b81336106aa565b3361064760008461070e565b610652600082610792565b600180546001600160a01b0319166001600160a01b0385811691821790925560408051928416835260208301919091527f8be0079c531659141344cd1fd0a4f28419497f9722a3daafe3b4186f6b6457e0910161040b565b6106b482826105e0565b6104f4576106cc816001600160a01b031660146107f7565b6106d78360206107f7565b6040516020016106e8929190610b27565b60408051601f198184030181529082905262461bcd60e51b825261031791600401610b9c565b61071882826105e0565b6104f4576000828152602081815260408083206001600160a01b03851684529091529020805460ff1916600117905561074e3390565b6001600160a01b0316816001600160a01b0316837f2f8788117e7eff1d82e926ec794901d17c78024a50270940304540a733656f0d60405160405180910390a45050565b61079c82826105e0565b156104f4576000828152602081815260408083206001600160a01b0385168085529252808320805460ff1916905551339285917ff6391f5c32d9c69d2a47ea670b442974b53935d1edc7fd64eb21e047a839171b9190a45050565b60606000610806836002610a80565b610811906002610a9f565b67ffffffffffffffff81111561082957610829610bcf565b6040519080825280601f01601f191660200182016040528015610853576020820181803683370190505b509050600360fc1b8160008151811061086e5761086e610be5565b60200101906001600160f81b031916908160001a905350600f60fb1b8160018151811061089d5761089d610be5565b60200101906001600160f81b031916908160001a90535060006108c1846002610a80565b6108cc906001610a9f565b90505b6001811115610944576f181899199a1a9b1b9c1cb0b131b232b360811b85600f166010811061090057610900610be5565b1a60f81b82828151811061091657610916610be5565b60200101906001600160f81b031916908160001a90535060049490941c9361093d81610bfb565b90506108cf565b5083156109935760405162461bcd60e51b815260206004820181905260248201527f537472696e67733a20686578206c656e67746820696e73756666696369656e746044820152606401610317565b9392505050565b6000602082840312156109ac57600080fd5b81356001600160e01b03198116811461099357600080fd5b6000602082840312156109d657600080fd5b5035919050565b80356001600160a01b03811681146109f457600080fd5b919050565b60008060408385031215610a0c57600080fd5b82359150610a1c602084016109dd565b90509250929050565b60008060408385031215610a3857600080fd5b610a41836109dd565b946020939093013593505050565b600060208284031215610a6157600080fd5b610993826109dd565b634e487b7160e01b600052601160045260246000fd5b6000816000190483118215151615610a9a57610a9a610a6a565b500290565b60008219821115610ab257610ab2610a6a565b500190565b600082610ad457634e487b7160e01b600052601260045260246000fd5b500490565b600060208284031215610aeb57600080fd5b8151801515811461099357600080fd5b60005b83811015610b16578181015183820152602001610afe565b838111156105da5750506000910152565b7f416363657373436f6e74726f6c3a206163636f756e7420000000000000000000815260008351610b5f816017850160208801610afb565b7001034b99036b4b9b9b4b733903937b6329607d1b6017918401918201528351610b90816028840160208801610afb565b01602801949350505050565b6020815260008251806020840152610bbb816040850160208701610afb565b601f01601f19169190910160400192915050565b634e487b7160e01b600052604160045260246000fd5b634e487b7160e01b600052603260045260246000fd5b600081610c0a57610c0a610a6a565b50600019019056fea2646970667358221220b066ebb6ae047ea11f864cdca3e22f2afcb18ca438e654f69d24598214525be764736f6c63430008090033",
  "libraries": [],
  "devdoc": {
    "kind": "dev",
    "methods": {
      "getRoleAdmin(bytes32)": {
        "details": "Returns the admin role that controls `role`. See {grantRole} and {revokeRole}. To change a role's admin, use {_setRoleAdmin}."
      },
      "grantRole(bytes32,address)": {
        "details": "Grants `role` to `account`. If `account` had not been already granted `role`, emits a {RoleGranted} event. Requirements: - the caller must have ``role``'s admin role."
      },
      "hasRole(bytes32,address)": {
        "details": "Returns `true` if `account` has been granted `role`."
      },
      "recoverERC20(address,uint256)": {
        "details": "Remember that only owner can call so be careful when use on contracts generated from other contracts.",
        "params": {
          "tokenAddress": "The token contract address",
          "tokenAmount": "Number of tokens to be sent"
        }
      },
      "renounceRole(bytes32,address)": {
        "details": "Revokes `role` from the calling account. Roles are often managed via {grantRole} and {revokeRole}: this function's purpose is to provide a mechanism for accounts to lose their privileges if they are compromised (such as when a trusted device is misplaced). If the calling account had been revoked `role`, emits a {RoleRevoked} event. Requirements: - the caller must be `account`."
      },
      "revokeRole(bytes32,address)": {
        "details": "Revokes `role` from `account`. If `account` had been granted `role`, emits a {RoleRevoked} event. Requirements: - the caller must have ``role``'s admin role."
      },
      "supportsInterface(bytes4)": {
        "details": "See {IERC165-supportsInterface}."
      }
    },
    "version": 1
  },
  "userdoc": {
    "kind": "user",
    "methods": {},
    "version": 1
  },
  "storageLayout": {
    "storage": [
      {
        "astId": 24,
        "contract": "contracts/KingOfTheFools.sol:KingOfTheFools",
        "label": "_roles",
        "offset": 0,
        "slot": "0",
        "type": "t_mapping(t_bytes32,t_struct(RoleData)19_storage)"
      },
      {
        "astId": 1538,
        "contract": "contracts/KingOfTheFools.sol:KingOfTheFools",
        "label": "owner",
        "offset": 0,
        "slot": "1",
        "type": "t_address_payable"
      },
      {
        "astId": 1359,
        "contract": "contracts/KingOfTheFools.sol:KingOfTheFools",
        "label": "lastDeposit",
        "offset": 0,
        "slot": "2",
        "type": "t_uint256"
      },
      {
        "astId": 1361,
        "contract": "contracts/KingOfTheFools.sol:KingOfTheFools",
        "label": "previousDepositor",
        "offset": 0,
        "slot": "3",
        "type": "t_address"
      }
    ],
    "types": {
      "t_address": {
        "encoding": "inplace",
        "label": "address",
        "numberOfBytes": "20"
      },
      "t_address_payable": {
        "encoding": "inplace",
        "label": "address payable",
        "numberOfBytes": "20"
      },
      "t_bool": {
        "encoding": "inplace",
        "label": "bool",
        "numberOfBytes": "1"
      },
      "t_bytes32": {
        "encoding": "inplace",
        "label": "bytes32",
        "numberOfBytes": "32"
      },
      "t_mapping(t_address,t_bool)": {
        "encoding": "mapping",
        "key": "t_address",
        "label": "mapping(address => bool)",
        "numberOfBytes": "32",
        "value": "t_bool"
      },
      "t_mapping(t_bytes32,t_struct(RoleData)19_storage)": {
        "encoding": "mapping",
        "key": "t_bytes32",
        "label": "mapping(bytes32 => struct AccessControl.RoleData)",
        "numberOfBytes": "32",
        "value": "t_struct(RoleData)19_storage"
      },
      "t_struct(RoleData)19_storage": {
        "encoding": "inplace",
        "label": "struct AccessControl.RoleData",
        "members": [
          {
            "astId": 16,
            "contract": "contracts/KingOfTheFools.sol:KingOfTheFools",
            "label": "members",
            "offset": 0,
            "slot": "0",
            "type": "t_mapping(t_address,t_bool)"
          },
          {
            "astId": 18,
            "contract": "contracts/KingOfTheFools.sol:KingOfTheFools",
            "label": "adminRole",
            "offset": 0,
            "slot": "1",
            "type": "t_bytes32"
          }
        ],
        "numberOfBytes": "64"
      },
      "t_uint256": {
        "encoding": "inplace",
        "label": "uint256",
        "numberOfBytes": "32"
      }
    }
  }
}